{
  "_format": "hh-sol-artifact-1",
  "contractName": "Receiver",
  "sourceName": "contracts/Receiver.sol",
  "abi": [
    {
      "inputs": [
        {
          "internalType": "address",
          "name": "gateway_",
          "type": "address"
        }
      ],
      "stateMutability": "nonpayable",
      "type": "constructor"
    },
    {
      "inputs": [],
      "name": "InvalidAddress",
      "type": "error"
    },
    {
      "inputs": [],
      "name": "NotApprovedByGateway",
      "type": "error"
    },
    {
      "inputs": [
        {
          "internalType": "bytes32",
          "name": "commandId",
          "type": "bytes32"
        },
        {
          "internalType": "string",
          "name": "sourceChain",
          "type": "string"
        },
        {
          "internalType": "string",
          "name": "sourceAddress",
          "type": "string"
        },
        {
          "internalType": "bytes",
          "name": "payload",
          "type": "bytes"
        }
      ],
      "name": "execute",
      "outputs": [],
      "stateMutability": "nonpayable",
      "type": "function"
    },
    {
      "inputs": [
        {
          "internalType": "bytes32",
          "name": "commandId",
          "type": "bytes32"
        },
        {
          "internalType": "string",
          "name": "sourceChain",
          "type": "string"
        },
        {
          "internalType": "string",
          "name": "sourceAddress",
          "type": "string"
        },
        {
          "internalType": "bytes",
          "name": "payload",
          "type": "bytes"
        },
        {
          "internalType": "string",
          "name": "tokenSymbol",
          "type": "string"
        },
        {
          "internalType": "uint256",
          "name": "amount",
          "type": "uint256"
        }
      ],
      "name": "executeWithToken",
      "outputs": [],
      "stateMutability": "nonpayable",
      "type": "function"
    },
    {
      "inputs": [],
      "name": "gateway",
      "outputs": [
        {
          "internalType": "contract IAxelarGateway",
          "name": "",
          "type": "address"
        }
      ],
      "stateMutability": "view",
      "type": "function"
    }
  ],
  "bytecode": "0x60a060405234801561001057600080fd5b50604051610da3380380610da383398181016040528101906100329190610137565b80600073ffffffffffffffffffffffffffffffffffffffff168173ffffffffffffffffffffffffffffffffffffffff1603610099576040517fe6c4247b00000000000000000000000000000000000000000000000000000000815260040160405180910390fd5b8073ffffffffffffffffffffffffffffffffffffffff1660808173ffffffffffffffffffffffffffffffffffffffff16815250505050610164565b600080fd5b600073ffffffffffffffffffffffffffffffffffffffff82169050919050565b6000610104826100d9565b9050919050565b610114816100f9565b811461011f57600080fd5b50565b6000815190506101318161010b565b92915050565b60006020828403121561014d5761014c6100d4565b5b600061015b84828501610122565b91505092915050565b608051610c1161019260003960008181609e0152818160de015281816101fa015261030f0152610c116000f3fe608060405234801561001057600080fd5b50600436106100415760003560e01c8063116191b6146100465780631a98b2e0146100645780634916065814610080575b600080fd5b61004e61009c565b60405161005b9190610448565b60405180910390f35b61007e6004803603810190610079919061059e565b6100c0565b005b61009a600480360381019061009591906106ae565b6101dc565b005b7f000000000000000000000000000000000000000000000000000000000000000081565b600085856040516100d29291906107b6565b604051809103902090507f000000000000000000000000000000000000000000000000000000000000000073ffffffffffffffffffffffffffffffffffffffff16631876eed98c8c8c8c8c878b8b8b6040518a63ffffffff1660e01b81526004016101459998979695949392919061083c565b6020604051808303816000875af1158015610164573d6000803e3d6000fd5b505050506040513d601f19601f8201168201806040525081019061018891906108f0565b6101be576040517f500c44b400000000000000000000000000000000000000000000000000000000815260040160405180910390fd5b6101cf8a8a8a8a8a8a8a8a8a6102ec565b5050505050505050505050565b600082826040516101ee9291906107b6565b604051809103902090507f000000000000000000000000000000000000000000000000000000000000000073ffffffffffffffffffffffffffffffffffffffff16635f6970c38989898989876040518763ffffffff1660e01b815260040161025b9695949392919061091d565b6020604051808303816000875af115801561027a573d6000803e3d6000fd5b505050506040513d601f19601f8201168201806040525081019061029e91906108f0565b6102d4576040517f500c44b400000000000000000000000000000000000000000000000000000000815260040160405180910390fd5b6102e28787878787876102f7565b5050505050505050565b505050505050505050565b60008083838101906103099190610a95565b915091507f000000000000000000000000000000000000000000000000000000000000000073ffffffffffffffffffffffffffffffffffffffff16631c92115f898989898760405160200161035e9190610af1565b6040516020818303038152906040526040518663ffffffff1660e01b815260040161038d959493929190610b8b565b600060405180830381600087803b1580156103a757600080fd5b505af11580156103bb573d6000803e3d6000fd5b505050505050505050505050565b600073ffffffffffffffffffffffffffffffffffffffff82169050919050565b6000819050919050565b600061040e610409610404846103c9565b6103e9565b6103c9565b9050919050565b6000610420826103f3565b9050919050565b600061043282610415565b9050919050565b61044281610427565b82525050565b600060208201905061045d6000830184610439565b92915050565b6000604051905090565b600080fd5b600080fd5b6000819050919050565b61048a81610477565b811461049557600080fd5b50565b6000813590506104a781610481565b92915050565b600080fd5b600080fd5b600080fd5b60008083601f8401126104d2576104d16104ad565b5b8235905067ffffffffffffffff8111156104ef576104ee6104b2565b5b60208301915083600182028301111561050b5761050a6104b7565b5b9250929050565b60008083601f840112610528576105276104ad565b5b8235905067ffffffffffffffff811115610545576105446104b2565b5b602083019150836001820283011115610561576105606104b7565b5b9250929050565b6000819050919050565b61057b81610568565b811461058657600080fd5b50565b60008135905061059881610572565b92915050565b60008060008060008060008060008060c08b8d0312156105c1576105c061046d565b5b60006105cf8d828e01610498565b9a505060208b013567ffffffffffffffff8111156105f0576105ef610472565b5b6105fc8d828e016104bc565b995099505060408b013567ffffffffffffffff81111561061f5761061e610472565b5b61062b8d828e016104bc565b975097505060608b013567ffffffffffffffff81111561064e5761064d610472565b5b61065a8d828e01610512565b955095505060808b013567ffffffffffffffff81111561067d5761067c610472565b5b6106898d828e016104bc565b935093505060a061069c8d828e01610589565b9150509295989b9194979a5092959850565b60008060008060008060006080888a0312156106cd576106cc61046d565b5b60006106db8a828b01610498565b975050602088013567ffffffffffffffff8111156106fc576106fb610472565b5b6107088a828b016104bc565b9650965050604088013567ffffffffffffffff81111561072b5761072a610472565b5b6107378a828b016104bc565b9450945050606088013567ffffffffffffffff81111561075a57610759610472565b5b6107668a828b01610512565b925092505092959891949750929550565b600081905092915050565b82818337600083830152505050565b600061079d8385610777565b93506107aa838584610782565b82840190509392505050565b60006107c3828486610791565b91508190509392505050565b6107d881610477565b82525050565b600082825260208201905092915050565b6000601f19601f8301169050919050565b600061080c83856107de565b9350610819838584610782565b610822836107ef565b840190509392505050565b61083681610568565b82525050565b600060c082019050610851600083018c6107cf565b8181036020830152610864818a8c610800565b9050818103604083015261087981888a610800565b905061088860608301876107cf565b818103608083015261089b818587610800565b90506108aa60a083018461082d565b9a9950505050505050505050565b60008115159050919050565b6108cd816108b8565b81146108d857600080fd5b50565b6000815190506108ea816108c4565b92915050565b6000602082840312156109065761090561046d565b5b6000610914848285016108db565b91505092915050565b600060808201905061093260008301896107cf565b8181036020830152610945818789610800565b9050818103604083015261095a818587610800565b905061096960608301846107cf565b979650505050505050565b600080fd5b7f4e487b7100000000000000000000000000000000000000000000000000000000600052604160045260246000fd5b6109b1826107ef565b810181811067ffffffffffffffff821117156109d0576109cf610979565b5b80604052505050565b60006109e3610463565b90506109ef82826109a8565b919050565b600067ffffffffffffffff821115610a0f57610a0e610979565b5b610a18826107ef565b9050602081019050919050565b6000610a38610a33846109f4565b6109d9565b905082815260208101848484011115610a5457610a53610974565b5b610a5f848285610782565b509392505050565b600082601f830112610a7c57610a7b6104ad565b5b8135610a8c848260208601610a25565b91505092915050565b60008060408385031215610aac57610aab61046d565b5b6000610aba85828601610589565b925050602083013567ffffffffffffffff811115610adb57610ada610472565b5b610ae785828601610a67565b9150509250929050565b6000602082019050610b06600083018461082d565b92915050565b600081519050919050565b600082825260208201905092915050565b60005b83811015610b46578082015181840152602081019050610b2b565b60008484015250505050565b6000610b5d82610b0c565b610b678185610b17565b9350610b77818560208601610b28565b610b80816107ef565b840191505092915050565b60006060820190508181036000830152610ba6818789610800565b90508181036020830152610bbb818587610800565b90508181036040830152610bcf8184610b52565b9050969550505050505056fea2646970667358221220fec9f45fa5256d2431947c0c2a59b91d297c6254b06ce871381b6ccb9f52da7f64736f6c63430008110033",
  "linkReferences": {},
  "deployedLinkReferences": {}
}