{
  "_format": "hh-sol-artifact-1",
  "contractName": "Receiver",
  "sourceName": "contracts/Receiver.sol",
  "abi": [
    {
      "inputs": [
        {
          "internalType": "address",
          "name": "gateway_",
          "type": "address"
        }
      ],
      "stateMutability": "nonpayable",
      "type": "constructor"
    },
    {
      "inputs": [],
      "name": "InvalidAddress",
      "type": "error"
    },
    {
      "inputs": [],
      "name": "NotApprovedByGateway",
      "type": "error"
    },
    {
      "inputs": [],
      "name": "IID_IERC721",
      "outputs": [
        {
          "internalType": "bytes4",
          "name": "",
          "type": "bytes4"
        }
      ],
      "stateMutability": "view",
      "type": "function"
    },
    {
      "inputs": [
        {
          "internalType": "bytes32",
          "name": "commandId",
          "type": "bytes32"
        },
        {
          "internalType": "string",
          "name": "sourceChain",
          "type": "string"
        },
        {
          "internalType": "string",
          "name": "sourceAddress",
          "type": "string"
        },
        {
          "internalType": "bytes",
          "name": "payload",
          "type": "bytes"
        }
      ],
      "name": "execute",
      "outputs": [],
      "stateMutability": "nonpayable",
      "type": "function"
    },
    {
      "inputs": [
        {
          "internalType": "bytes32",
          "name": "commandId",
          "type": "bytes32"
        },
        {
          "internalType": "string",
          "name": "sourceChain",
          "type": "string"
        },
        {
          "internalType": "string",
          "name": "sourceAddress",
          "type": "string"
        },
        {
          "internalType": "bytes",
          "name": "payload",
          "type": "bytes"
        },
        {
          "internalType": "string",
          "name": "tokenSymbol",
          "type": "string"
        },
        {
          "internalType": "uint256",
          "name": "amount",
          "type": "uint256"
        }
      ],
      "name": "executeWithToken",
      "outputs": [],
      "stateMutability": "nonpayable",
      "type": "function"
    },
    {
      "inputs": [],
      "name": "gateway",
      "outputs": [
        {
          "internalType": "contract IAxelarGateway",
          "name": "",
          "type": "address"
        }
      ],
      "stateMutability": "view",
      "type": "function"
    },
    {
      "inputs": [
        {
          "internalType": "address",
          "name": "nftAddress",
          "type": "address"
        }
      ],
      "name": "isERC721",
      "outputs": [
        {
          "internalType": "bool",
          "name": "",
          "type": "bool"
        }
      ],
      "stateMutability": "view",
      "type": "function"
    }
  ],
  "bytecode": "0x60a06040523480156200001157600080fd5b506040516200132738038062001327833981810160405281019062000037919062000145565b80600073ffffffffffffffffffffffffffffffffffffffff168173ffffffffffffffffffffffffffffffffffffffff16036200009f576040517fe6c4247b00000000000000000000000000000000000000000000000000000000815260040160405180910390fd5b8073ffffffffffffffffffffffffffffffffffffffff1660808173ffffffffffffffffffffffffffffffffffffffff1681525050505062000177565b600080fd5b600073ffffffffffffffffffffffffffffffffffffffff82169050919050565b60006200010d82620000e0565b9050919050565b6200011f8162000100565b81146200012b57600080fd5b50565b6000815190506200013f8162000114565b92915050565b6000602082840312156200015e576200015d620000db565b5b60006200016e848285016200012e565b91505092915050565b60805161117f620001a860003960008181610102015281816101420152818161025e015261056a015261117f6000f3fe608060405234801561001057600080fd5b50600436106100575760003560e01c8063116191b61461005c5780631a98b2e01461007a5780634916065814610096578063daa09e54146100b2578063e0966dad146100e2575b600080fd5b610064610100565b60405161007191906107ba565b60405180910390f35b610094600480360381019061008f9190610910565b610124565b005b6100b060048036038101906100ab9190610a20565b610240565b005b6100cc60048036038101906100c79190610b27565b610350565b6040516100d99190610b6f565b60405180910390f35b6100ea6103a2565b6040516100f79190610bc5565b60405180910390f35b7f000000000000000000000000000000000000000000000000000000000000000081565b60008585604051610136929190610c1f565b604051809103902090507f000000000000000000000000000000000000000000000000000000000000000073ffffffffffffffffffffffffffffffffffffffff16631876eed98c8c8c8c8c878b8b8b6040518a63ffffffff1660e01b81526004016101a999989796959493929190610ca5565b6020604051808303816000875af11580156101c8573d6000803e3d6000fd5b505050506040513d601f19601f820116820180604052508101906101ec9190610d4d565b610222576040517f500c44b400000000000000000000000000000000000000000000000000000000815260040160405180910390fd5b6102338a8a8a8a8a8a8a8a8a6103c6565b5050505050505050505050565b60008282604051610252929190610c1f565b604051809103902090507f000000000000000000000000000000000000000000000000000000000000000073ffffffffffffffffffffffffffffffffffffffff16635f6970c38989898989876040518763ffffffff1660e01b81526004016102bf96959493929190610d7a565b6020604051808303816000875af11580156102de573d6000803e3d6000fd5b505050506040513d601f19601f820116820180604052508101906103029190610d4d565b610338576040517f500c44b400000000000000000000000000000000000000000000000000000000815260040160405180910390fd5b6103468787878787876103d1565b5050505050505050565b600061039b7f80ac58cd000000000000000000000000000000000000000000000000000000008373ffffffffffffffffffffffffffffffffffffffff1661060a90919063ffffffff16565b9050919050565b7f80ac58cd0000000000000000000000000000000000000000000000000000000081565b505050505050505050565b60008083838101906103e39190610ef2565b915091506000806000838060200190518101906104009190610fa1565b925092509250600061041183610350565b15610542578273ffffffffffffffffffffffffffffffffffffffff16636352211e836040518263ffffffff1660e01b815260040161044f9190610ff4565b602060405180830381865afa92505050801561048957506040513d601f19601f820116820180604052508101906104869190611024565b60015b1561054157508373ffffffffffffffffffffffffffffffffffffffff168373ffffffffffffffffffffffffffffffffffffffff16636352211e846040518263ffffffff1660e01b81526004016104df9190610ff4565b602060405180830381865afa1580156104fc573d6000803e3d6000fd5b505050506040513d601f19601f820116820180604052508101906105209190611024565b73ffffffffffffffffffffffffffffffffffffffff160361054057600190505b5b5b60008682604051602001610557929190611051565b60405160208183030381529060405290507f000000000000000000000000000000000000000000000000000000000000000073ffffffffffffffffffffffffffffffffffffffff16631c92115f8e8e8e8e866040518663ffffffff1660e01b81526004016105c99594939291906110f9565b600060405180830381600087803b1580156105e357600080fd5b505af11580156105f7573d6000803e3d6000fd5b5050505050505050505050505050505050565b60006106158361062f565b80156106275750610626838361067c565b5b905092915050565b600061065b827f01ffc9a70000000000000000000000000000000000000000000000000000000061067c565b801561067557506106738263ffffffff60e01b61067c565b155b9050919050565b6000806301ffc9a760e01b836040516024016106989190610bc5565b604051602081830303815290604052907bffffffffffffffffffffffffffffffffffffffffffffffffffffffff19166020820180517bffffffffffffffffffffffffffffffffffffffffffffffffffffffff838183161783525050505090506000806000602060008551602087018a617530fa92503d91506000519050828015610723575060208210155b801561072f5750600081115b94505050505092915050565b600073ffffffffffffffffffffffffffffffffffffffff82169050919050565b6000819050919050565b600061078061077b6107768461073b565b61075b565b61073b565b9050919050565b600061079282610765565b9050919050565b60006107a482610787565b9050919050565b6107b481610799565b82525050565b60006020820190506107cf60008301846107ab565b92915050565b6000604051905090565b600080fd5b600080fd5b6000819050919050565b6107fc816107e9565b811461080757600080fd5b50565b600081359050610819816107f3565b92915050565b600080fd5b600080fd5b600080fd5b60008083601f8401126108445761084361081f565b5b8235905067ffffffffffffffff81111561086157610860610824565b5b60208301915083600182028301111561087d5761087c610829565b5b9250929050565b60008083601f84011261089a5761089961081f565b5b8235905067ffffffffffffffff8111156108b7576108b6610824565b5b6020830191508360018202830111156108d3576108d2610829565b5b9250929050565b6000819050919050565b6108ed816108da565b81146108f857600080fd5b50565b60008135905061090a816108e4565b92915050565b60008060008060008060008060008060c08b8d031215610933576109326107df565b5b60006109418d828e0161080a565b9a505060208b013567ffffffffffffffff811115610962576109616107e4565b5b61096e8d828e0161082e565b995099505060408b013567ffffffffffffffff811115610991576109906107e4565b5b61099d8d828e0161082e565b975097505060608b013567ffffffffffffffff8111156109c0576109bf6107e4565b5b6109cc8d828e01610884565b955095505060808b013567ffffffffffffffff8111156109ef576109ee6107e4565b5b6109fb8d828e0161082e565b935093505060a0610a0e8d828e016108fb565b9150509295989b9194979a5092959850565b60008060008060008060006080888a031215610a3f57610a3e6107df565b5b6000610a4d8a828b0161080a565b975050602088013567ffffffffffffffff811115610a6e57610a6d6107e4565b5b610a7a8a828b0161082e565b9650965050604088013567ffffffffffffffff811115610a9d57610a9c6107e4565b5b610aa98a828b0161082e565b9450945050606088013567ffffffffffffffff811115610acc57610acb6107e4565b5b610ad88a828b01610884565b925092505092959891949750929550565b6000610af48261073b565b9050919050565b610b0481610ae9565b8114610b0f57600080fd5b50565b600081359050610b2181610afb565b92915050565b600060208284031215610b3d57610b3c6107df565b5b6000610b4b84828501610b12565b91505092915050565b60008115159050919050565b610b6981610b54565b82525050565b6000602082019050610b846000830184610b60565b92915050565b60007fffffffff0000000000000000000000000000000000000000000000000000000082169050919050565b610bbf81610b8a565b82525050565b6000602082019050610bda6000830184610bb6565b92915050565b600081905092915050565b82818337600083830152505050565b6000610c068385610be0565b9350610c13838584610beb565b82840190509392505050565b6000610c2c828486610bfa565b91508190509392505050565b610c41816107e9565b82525050565b600082825260208201905092915050565b6000601f19601f8301169050919050565b6000610c758385610c47565b9350610c82838584610beb565b610c8b83610c58565b840190509392505050565b610c9f816108da565b82525050565b600060c082019050610cba600083018c610c38565b8181036020830152610ccd818a8c610c69565b90508181036040830152610ce281888a610c69565b9050610cf16060830187610c38565b8181036080830152610d04818587610c69565b9050610d1360a0830184610c96565b9a9950505050505050505050565b610d2a81610b54565b8114610d3557600080fd5b50565b600081519050610d4781610d21565b92915050565b600060208284031215610d6357610d626107df565b5b6000610d7184828501610d38565b91505092915050565b6000608082019050610d8f6000830189610c38565b8181036020830152610da2818789610c69565b90508181036040830152610db7818587610c69565b9050610dc66060830184610c38565b979650505050505050565b600080fd5b7f4e487b7100000000000000000000000000000000000000000000000000000000600052604160045260246000fd5b610e0e82610c58565b810181811067ffffffffffffffff82111715610e2d57610e2c610dd6565b5b80604052505050565b6000610e406107d5565b9050610e4c8282610e05565b919050565b600067ffffffffffffffff821115610e6c57610e6b610dd6565b5b610e7582610c58565b9050602081019050919050565b6000610e95610e9084610e51565b610e36565b905082815260208101848484011115610eb157610eb0610dd1565b5b610ebc848285610beb565b509392505050565b600082601f830112610ed957610ed861081f565b5b8135610ee9848260208601610e82565b91505092915050565b60008060408385031215610f0957610f086107df565b5b6000610f17858286016108fb565b925050602083013567ffffffffffffffff811115610f3857610f376107e4565b5b610f4485828601610ec4565b9150509250929050565b6000610f598261073b565b9050919050565b610f6981610f4e565b8114610f7457600080fd5b50565b600081519050610f8681610f60565b92915050565b600081519050610f9b816108e4565b92915050565b600080600060608486031215610fba57610fb96107df565b5b6000610fc886828701610f77565b9350506020610fd986828701610f77565b9250506040610fea86828701610f8c565b9150509250925092565b60006020820190506110096000830184610c96565b92915050565b60008151905061101e81610afb565b92915050565b60006020828403121561103a576110396107df565b5b60006110488482850161100f565b91505092915050565b60006040820190506110666000830185610c96565b6110736020830184610b60565b9392505050565b600081519050919050565b600082825260208201905092915050565b60005b838110156110b4578082015181840152602081019050611099565b60008484015250505050565b60006110cb8261107a565b6110d58185611085565b93506110e5818560208601611096565b6110ee81610c58565b840191505092915050565b60006060820190508181036000830152611114818789610c69565b90508181036020830152611129818587610c69565b9050818103604083015261113d81846110c0565b9050969550505050505056fea2646970667358221220338516d45dbdc1677515c6e441a25e1b78bd26524449b7aa7b41715ebefaf34264736f6c63430008110033",
  "linkReferences": {},
  "deployedLinkReferences": {}
}