{
  "_format": "hh-sol-artifact-1",
  "contractName": "Sender",
  "sourceName": "contracts/Sender.sol",
  "abi": [
    {
      "inputs": [
        {
          "internalType": "address",
          "name": "gateway_",
          "type": "address"
        },
        {
          "internalType": "address",
          "name": "gasReceiver_",
          "type": "address"
        },
        {
          "internalType": "string",
          "name": "thisChain_",
          "type": "string"
        }
      ],
      "stateMutability": "nonpayable",
      "type": "constructor"
    },
    {
      "inputs": [],
      "name": "InvalidAddress",
      "type": "error"
    },
    {
      "inputs": [],
      "name": "InvalidAddressString",
      "type": "error"
    },
    {
      "inputs": [],
      "name": "NotApprovedByGateway",
      "type": "error"
    },
    {
      "inputs": [],
      "name": "NotEnoughValueForGas",
      "type": "error"
    },
    {
      "anonymous": false,
      "inputs": [
        {
          "indexed": false,
          "internalType": "string",
          "name": "destinationChain",
          "type": "string"
        },
        {
          "indexed": false,
          "internalType": "string",
          "name": "contractAddress",
          "type": "string"
        },
        {
          "indexed": false,
          "internalType": "bytes",
          "name": "payload",
          "type": "bytes"
        },
        {
          "indexed": false,
          "internalType": "uint256",
          "name": "nonce",
          "type": "uint256"
        }
      ],
      "name": "ContractCallSent",
      "type": "event"
    },
    {
      "anonymous": false,
      "inputs": [
        {
          "indexed": false,
          "internalType": "string",
          "name": "destinationChain",
          "type": "string"
        },
        {
          "indexed": false,
          "internalType": "string",
          "name": "contractAddress",
          "type": "string"
        },
        {
          "indexed": false,
          "internalType": "uint256",
          "name": "nonce",
          "type": "uint256"
        }
      ],
      "name": "FalseAcknowledgment",
      "type": "event"
    },
    {
      "inputs": [
        {
          "internalType": "uint256",
          "name": "",
          "type": "uint256"
        }
      ],
      "name": "destination",
      "outputs": [
        {
          "internalType": "bytes32",
          "name": "",
          "type": "bytes32"
        }
      ],
      "stateMutability": "view",
      "type": "function"
    },
    {
      "inputs": [
        {
          "internalType": "bytes32",
          "name": "commandId",
          "type": "bytes32"
        },
        {
          "internalType": "string",
          "name": "sourceChain",
          "type": "string"
        },
        {
          "internalType": "string",
          "name": "sourceAddress",
          "type": "string"
        },
        {
          "internalType": "bytes",
          "name": "payload",
          "type": "bytes"
        }
      ],
      "name": "execute",
      "outputs": [],
      "stateMutability": "nonpayable",
      "type": "function"
    },
    {
      "inputs": [
        {
          "internalType": "bytes32",
          "name": "commandId",
          "type": "bytes32"
        },
        {
          "internalType": "string",
          "name": "sourceChain",
          "type": "string"
        },
        {
          "internalType": "string",
          "name": "sourceAddress",
          "type": "string"
        },
        {
          "internalType": "bytes",
          "name": "payload",
          "type": "bytes"
        },
        {
          "internalType": "string",
          "name": "tokenSymbol",
          "type": "string"
        },
        {
          "internalType": "uint256",
          "name": "amount",
          "type": "uint256"
        }
      ],
      "name": "executeWithToken",
      "outputs": [],
      "stateMutability": "nonpayable",
      "type": "function"
    },
    {
      "inputs": [
        {
          "internalType": "uint256",
          "name": "",
          "type": "uint256"
        }
      ],
      "name": "executed",
      "outputs": [
        {
          "internalType": "bool",
          "name": "",
          "type": "bool"
        }
      ],
      "stateMutability": "view",
      "type": "function"
    },
    {
      "inputs": [],
      "name": "gasReceiver",
      "outputs": [
        {
          "internalType": "contract IAxelarGasService",
          "name": "",
          "type": "address"
        }
      ],
      "stateMutability": "view",
      "type": "function"
    },
    {
      "inputs": [],
      "name": "gateway",
      "outputs": [
        {
          "internalType": "contract IAxelarGateway",
          "name": "",
          "type": "address"
        }
      ],
      "stateMutability": "view",
      "type": "function"
    },
    {
      "inputs": [],
      "name": "nonce",
      "outputs": [
        {
          "internalType": "uint256",
          "name": "",
          "type": "uint256"
        }
      ],
      "stateMutability": "view",
      "type": "function"
    },
    {
      "inputs": [
        {
          "internalType": "string",
          "name": "destinationChain",
          "type": "string"
        },
        {
          "internalType": "string",
          "name": "contractAddress",
          "type": "string"
        },
        {
          "internalType": "bytes",
          "name": "payload",
          "type": "bytes"
        },
        {
          "internalType": "uint256",
          "name": "gasForRemote",
          "type": "uint256"
        }
      ],
      "name": "sendContractCall",
      "outputs": [],
      "stateMutability": "payable",
      "type": "function"
    },
    {
      "inputs": [],
      "name": "thisChain",
      "outputs": [
        {
          "internalType": "string",
          "name": "",
          "type": "string"
        }
      ],
      "stateMutability": "view",
      "type": "function"
    }
  ],
  "bytecode": "0x60c06040523480156200001157600080fd5b506040516200253a3803806200253a83398181016040528101906200003791906200031b565b82600073ffffffffffffffffffffffffffffffffffffffff168173ffffffffffffffffffffffffffffffffffffffff16036200009f576040517fe6c4247b00000000000000000000000000000000000000000000000000000000815260040160405180910390fd5b8073ffffffffffffffffffffffffffffffffffffffff1660808173ffffffffffffffffffffffffffffffffffffffff1681525050508173ffffffffffffffffffffffffffffffffffffffff1660a08173ffffffffffffffffffffffffffffffffffffffff16815250508060039081620001199190620005e1565b50505050620006c8565b6000604051905090565b600080fd5b600080fd5b600073ffffffffffffffffffffffffffffffffffffffff82169050919050565b6000620001648262000137565b9050919050565b620001768162000157565b81146200018257600080fd5b50565b60008151905062000196816200016b565b92915050565b600080fd5b600080fd5b6000601f19601f8301169050919050565b7f4e487b7100000000000000000000000000000000000000000000000000000000600052604160045260246000fd5b620001f182620001a6565b810181811067ffffffffffffffff82111715620002135762000212620001b7565b5b80604052505050565b60006200022862000123565b9050620002368282620001e6565b919050565b600067ffffffffffffffff821115620002595762000258620001b7565b5b6200026482620001a6565b9050602081019050919050565b60005b838110156200029157808201518184015260208101905062000274565b60008484015250505050565b6000620002b4620002ae846200023b565b6200021c565b905082815260208101848484011115620002d357620002d2620001a1565b5b620002e084828562000271565b509392505050565b600082601f8301126200030057620002ff6200019c565b5b8151620003128482602086016200029d565b91505092915050565b6000806000606084860312156200033757620003366200012d565b5b6000620003478682870162000185565b93505060206200035a8682870162000185565b925050604084015167ffffffffffffffff8111156200037e576200037d62000132565b5b6200038c86828701620002e8565b9150509250925092565b600081519050919050565b7f4e487b7100000000000000000000000000000000000000000000000000000000600052602260045260246000fd5b60006002820490506001821680620003e957607f821691505b602082108103620003ff57620003fe620003a1565b5b50919050565b60008190508160005260206000209050919050565b60006020601f8301049050919050565b600082821b905092915050565b600060088302620004697fffffffffffffffffffffffffffffffffffffffffffffffffffffffffffffffff826200042a565b6200047586836200042a565b95508019841693508086168417925050509392505050565b6000819050919050565b6000819050919050565b6000620004c2620004bc620004b6846200048d565b62000497565b6200048d565b9050919050565b6000819050919050565b620004de83620004a1565b620004f6620004ed82620004c9565b84845462000437565b825550505050565b600090565b6200050d620004fe565b6200051a818484620004d3565b505050565b5b8181101562000542576200053660008262000503565b60018101905062000520565b5050565b601f82111562000591576200055b8162000405565b62000566846200041a565b8101602085101562000576578190505b6200058e62000585856200041a565b8301826200051f565b50505b505050565b600082821c905092915050565b6000620005b66000198460080262000596565b1980831691505092915050565b6000620005d18383620005a3565b9150826002028217905092915050565b620005ec8262000396565b67ffffffffffffffff811115620006085762000607620001b7565b5b620006148254620003d0565b6200062182828562000546565b600060209050601f83116001811462000659576000841562000644578287015190505b620006508582620005c3565b865550620006c0565b601f198416620006698662000405565b60005b8281101562000693578489015182556001820191506020850194506020810190506200066c565b86831015620006b35784890151620006af601f891682620005a3565b8355505b6001600288020188555050505b505050505050565b60805160a051611e296200071160003960008181610517015281816105b201526106520152600081816102210152818161026101528181610395015261077d0152611e296000f3fe6080604052600436106100865760003560e01c80634d427cf9116100595780634d427cf91461014557806380d14b4a14610170578063affed0e01461019b578063ca209d7b146101c6578063d3ecebd7146101e257610086565b8063116191b61461008b5780631a98b2e0146100b657806344f6891e146100df578063491606581461011c575b600080fd5b34801561009757600080fd5b506100a061021f565b6040516100ad91906110b9565b60405180910390f35b3480156100c257600080fd5b506100dd60048036038101906100d89190611205565b610243565b005b3480156100eb57600080fd5b5061010660048036038101906101019190611315565b61035f565b6040516101139190611351565b60405180910390f35b34801561012857600080fd5b50610143600480360381019061013e919061136c565b610377565b005b34801561015157600080fd5b5061015a610487565b60405161016791906114c5565b60405180910390f35b34801561017c57600080fd5b50610185610515565b6040516101929190611508565b60405180910390f35b3480156101a757600080fd5b506101b0610539565b6040516101bd9190611532565b60405180910390f35b6101e060048036038101906101db919061154d565b61053f565b005b3480156101ee57600080fd5b5061020960048036038101906102049190611315565b610918565b6040516102169190611631565b60405180910390f35b7f000000000000000000000000000000000000000000000000000000000000000081565b6000858560405161025592919061168b565b604051809103902090507f000000000000000000000000000000000000000000000000000000000000000073ffffffffffffffffffffffffffffffffffffffff16631876eed98c8c8c8c8c878b8b8b6040518a63ffffffff1660e01b81526004016102c8999897969594939291906116d1565b6020604051808303816000875af11580156102e7573d6000803e3d6000fd5b505050506040513d601f19601f8201168201806040525081019061030b9190611779565b610341576040517f500c44b400000000000000000000000000000000000000000000000000000000815260040160405180910390fd5b6103528a8a8a8a8a8a8a8a8a610938565b5050505050505050505050565b60026020528060005260406000206000915090505481565b6000828260405161038992919061168b565b604051809103902090507f000000000000000000000000000000000000000000000000000000000000000073ffffffffffffffffffffffffffffffffffffffff16635f6970c38989898989876040518763ffffffff1660e01b81526004016103f6969594939291906117a6565b6020604051808303816000875af1158015610415573d6000803e3d6000fd5b505050506040513d601f19601f820116820180604052508101906104399190611779565b61046f576040517f500c44b400000000000000000000000000000000000000000000000000000000815260040160405180910390fd5b61047d878787878787610943565b5050505050505050565b600380546104949061182c565b80601f01602080910402602001604051908101604052809291908181526020018280546104c09061182c565b801561050d5780601f106104e25761010080835404028352916020019161050d565b820191906000526020600020905b8154815290600101906020018083116104f057829003601f168201915b505050505081565b7f000000000000000000000000000000000000000000000000000000000000000081565b60005481565b600080549050600081858560405160200161055c9392919061189b565b6040516020818303038152906040529050600083111561077b57348311156105b0576040517fe5f5a79900000000000000000000000000000000000000000000000000000000815260040160405180910390fd5b7f000000000000000000000000000000000000000000000000000000000000000073ffffffffffffffffffffffffffffffffffffffff16630c93e3bb84308c8c8c8c88336040518963ffffffff1660e01b81526004016106169796959493929190611932565b6000604051808303818588803b15801561062f57600080fd5b505af1158015610643573d6000803e3d6000fd5b50505050508234111561077a577f000000000000000000000000000000000000000000000000000000000000000073ffffffffffffffffffffffffffffffffffffffff16630c93e3bb843461069891906119cd565b6106e58a8a8080601f016020809104026020016040519081016040528093929190818152602001838380828437600081840152601f19601f82011690508083019250505050505050610a96565b60036107063073ffffffffffffffffffffffffffffffffffffffff16610ce4565b876040516020016107179190611532565b604051602081830303815290604052336040518763ffffffff1660e01b8152600401610747959493929190611a9a565b6000604051808303818588803b15801561076057600080fd5b505af1158015610774573d6000803e3d6000fd5b50505050505b5b7f000000000000000000000000000000000000000000000000000000000000000073ffffffffffffffffffffffffffffffffffffffff16631c92115f8a8a8a8a866040518663ffffffff1660e01b81526004016107dc959493929190611b02565b600060405180830381600087803b1580156107f657600080fd5b505af115801561080a573d6000803e3d6000fd5b505050507f6c52f5eda14b017bd6057579de78fe8354d9c133d8e7edec70920ef11b108900898989898989886040516108499796959493929190611b52565b60405180910390a16108e389898080601f016020809104026020016040519081016040528093929190818152602001838380828437600081840152601f19601f8201169050808301925050505050505088888080601f016020809104026020016040519081016040528093929190818152602001838380828437600081840152601f19601f82011690508083019250505050505050611007565b60026000848152602001908152602001600020819055506001826109079190611bb2565b600081905550505050505050505050565b60016020528060005260406000206000915054906101000a900460ff1681565b505050505050505050565b600082828101906109549190611315565b90506109e887878080601f016020809104026020016040519081016040528093929190818152602001838380828437600081840152601f19601f8201169050808301925050505050505086868080601f016020809104026020016040519081016040528093929190818152602001838380828437600081840152601f19601f82011690508083019250505050505050611007565b600260008381526020019081526020016000205414610a46577f036f215e0dffdb0755f8b502613d33e916e9f35487ca9b8e9be104a1cd9caa128787878785604051610a38959493929190611be6565b60405180910390a150610a8e565b600180600083815260200190815260200160002060006101000a81548160ff0219169083151502179055506000801b6002600083815260200190815260200160002081905550505b505050505050565b600080829050600080602a8351141580610b1057507f300000000000000000000000000000000000000000000000000000000000000083600081518110610ae057610adf611c2f565b5b602001015160f81c60f81b7effffffffffffffffffffffffffffffffffffffffffffffffffffffffffffff191614155b80610b7b57507f780000000000000000000000000000000000000000000000000000000000000083600181518110610b4b57610b4a611c2f565b5b602001015160f81c60f81b7effffffffffffffffffffffffffffffffffffffffffffffffffffffffffffff191614155b15610bb2576040517fdf48f19e00000000000000000000000000000000000000000000000000000000815260040160405180910390fd5b6000600290505b602a811015610cd857838181518110610bd557610bd4611c2f565b5b602001015160f81c60f81b60f81c915060618260ff1610158015610bfd575060668260ff1611155b15610c1657605782610c0f9190611c6b565b9150610cac565b60418260ff1610158015610c2e575060468260ff1611155b15610c4757603782610c409190611c6b565b9150610cab565b60308260ff1610158015610c5f575060398260ff1611155b15610c7857603082610c719190611c6b565b9150610caa565b6040517fdf48f19e00000000000000000000000000000000000000000000000000000000815260040160405180910390fd5b5b5b6002816029610cbb91906119cd565b901b8260ff16901b8317925080610cd190611ca0565b9050610bb9565b50819350505050919050565b6060600082604051602001610cf99190611d30565b604051602081830303815290604052905060008151905060006040518060400160405280601081526020017f30313233343536373839616263646566000000000000000000000000000000008152509050600060028451610d5a9190611d4b565b6002610d669190611bb2565b67ffffffffffffffff811115610d7f57610d7e611d8d565b5b6040519080825280601f01601f191660200182016040528015610db15781602001600182028036833780820191505090505b5090507f300000000000000000000000000000000000000000000000000000000000000081600081518110610de957610de8611c2f565b5b60200101907effffffffffffffffffffffffffffffffffffffffffffffffffffffffffffff1916908160001a9053507f780000000000000000000000000000000000000000000000000000000000000081600181518110610e4d57610e4c611c2f565b5b60200101907effffffffffffffffffffffffffffffffffffffffffffffffffffffffffffff1916908160001a90535060005b83811015610ffa57826004868381518110610e9d57610e9c611c2f565b5b602001015160f81c60f81b7effffffffffffffffffffffffffffffffffffffffffffffffffffffffffffff1916901c60f81c60ff1681518110610ee357610ee2611c2f565b5b602001015160f81c60f81b82600283610efc9190611d4b565b6002610f089190611bb2565b81518110610f1957610f18611c2f565b5b60200101907effffffffffffffffffffffffffffffffffffffffffffffffffffffffffffff1916908160001a90535082600f60f81b868381518110610f6157610f60611c2f565b5b602001015160f81c60f81b1660f81c60ff1681518110610f8457610f83611c2f565b5b602001015160f81c60f81b82600283610f9d9190611d4b565b6003610fa99190611bb2565b81518110610fba57610fb9611c2f565b5b60200101907effffffffffffffffffffffffffffffffffffffffffffffffffffffffffffff1916908160001a90535080610ff390611ca0565b9050610e7f565b5080945050505050919050565b6000828260405160200161101c929190611dbc565b60405160208183030381529060405280519060200120905092915050565b600073ffffffffffffffffffffffffffffffffffffffff82169050919050565b6000819050919050565b600061107f61107a6110758461103a565b61105a565b61103a565b9050919050565b600061109182611064565b9050919050565b60006110a382611086565b9050919050565b6110b381611098565b82525050565b60006020820190506110ce60008301846110aa565b92915050565b600080fd5b600080fd5b6000819050919050565b6110f1816110de565b81146110fc57600080fd5b50565b60008135905061110e816110e8565b92915050565b600080fd5b600080fd5b600080fd5b60008083601f84011261113957611138611114565b5b8235905067ffffffffffffffff81111561115657611155611119565b5b6020830191508360018202830111156111725761117161111e565b5b9250929050565b60008083601f84011261118f5761118e611114565b5b8235905067ffffffffffffffff8111156111ac576111ab611119565b5b6020830191508360018202830111156111c8576111c761111e565b5b9250929050565b6000819050919050565b6111e2816111cf565b81146111ed57600080fd5b50565b6000813590506111ff816111d9565b92915050565b60008060008060008060008060008060c08b8d031215611228576112276110d4565b5b60006112368d828e016110ff565b9a505060208b013567ffffffffffffffff811115611257576112566110d9565b5b6112638d828e01611123565b995099505060408b013567ffffffffffffffff811115611286576112856110d9565b5b6112928d828e01611123565b975097505060608b013567ffffffffffffffff8111156112b5576112b46110d9565b5b6112c18d828e01611179565b955095505060808b013567ffffffffffffffff8111156112e4576112e36110d9565b5b6112f08d828e01611123565b935093505060a06113038d828e016111f0565b9150509295989b9194979a5092959850565b60006020828403121561132b5761132a6110d4565b5b6000611339848285016111f0565b91505092915050565b61134b816110de565b82525050565b60006020820190506113666000830184611342565b92915050565b60008060008060008060006080888a03121561138b5761138a6110d4565b5b60006113998a828b016110ff565b975050602088013567ffffffffffffffff8111156113ba576113b96110d9565b5b6113c68a828b01611123565b9650965050604088013567ffffffffffffffff8111156113e9576113e86110d9565b5b6113f58a828b01611123565b9450945050606088013567ffffffffffffffff811115611418576114176110d9565b5b6114248a828b01611179565b925092505092959891949750929550565b600081519050919050565b600082825260208201905092915050565b60005b8381101561146f578082015181840152602081019050611454565b60008484015250505050565b6000601f19601f8301169050919050565b600061149782611435565b6114a18185611440565b93506114b1818560208601611451565b6114ba8161147b565b840191505092915050565b600060208201905081810360008301526114df818461148c565b905092915050565b60006114f282611086565b9050919050565b611502816114e7565b82525050565b600060208201905061151d60008301846114f9565b92915050565b61152c816111cf565b82525050565b60006020820190506115476000830184611523565b92915050565b60008060008060008060006080888a03121561156c5761156b6110d4565b5b600088013567ffffffffffffffff81111561158a576115896110d9565b5b6115968a828b01611123565b9750975050602088013567ffffffffffffffff8111156115b9576115b86110d9565b5b6115c58a828b01611123565b9550955050604088013567ffffffffffffffff8111156115e8576115e76110d9565b5b6115f48a828b01611179565b935093505060606116078a828b016111f0565b91505092959891949750929550565b60008115159050919050565b61162b81611616565b82525050565b60006020820190506116466000830184611622565b92915050565b600081905092915050565b82818337600083830152505050565b6000611672838561164c565b935061167f838584611657565b82840190509392505050565b6000611698828486611666565b91508190509392505050565b60006116b08385611440565b93506116bd838584611657565b6116c68361147b565b840190509392505050565b600060c0820190506116e6600083018c611342565b81810360208301526116f9818a8c6116a4565b9050818103604083015261170e81888a6116a4565b905061171d6060830187611342565b81810360808301526117308185876116a4565b905061173f60a0830184611523565b9a9950505050505050505050565b61175681611616565b811461176157600080fd5b50565b6000815190506117738161174d565b92915050565b60006020828403121561178f5761178e6110d4565b5b600061179d84828501611764565b91505092915050565b60006080820190506117bb6000830189611342565b81810360208301526117ce8187896116a4565b905081810360408301526117e38185876116a4565b90506117f26060830184611342565b979650505050505050565b7f4e487b7100000000000000000000000000000000000000000000000000000000600052602260045260246000fd5b6000600282049050600182168061184457607f821691505b602082108103611857576118566117fd565b5b50919050565b600082825260208201905092915050565b600061187a838561185d565b9350611887838584611657565b6118908361147b565b840190509392505050565b60006040820190506118b06000830186611523565b81810360208301526118c381848661186e565b9050949350505050565b60006118d88261103a565b9050919050565b6118e8816118cd565b82525050565b600081519050919050565b6000611904826118ee565b61190e818561185d565b935061191e818560208601611451565b6119278161147b565b840191505092915050565b600060a082019050611947600083018a6118df565b818103602083015261195a81888a6116a4565b9050818103604083015261196f8186886116a4565b9050818103606083015261198381856118f9565b905061199260808301846118df565b98975050505050505050565b7f4e487b7100000000000000000000000000000000000000000000000000000000600052601160045260246000fd5b60006119d8826111cf565b91506119e3836111cf565b92508282039050818111156119fb576119fa61199e565b5b92915050565b60008190508160005260206000209050919050565b60008154611a238161182c565b611a2d8186611440565b94506001821660008114611a485760018114611a5e57611a91565b60ff198316865281151560200286019350611a91565b611a6785611a01565b60005b83811015611a8957815481890152600182019150602081019050611a6a565b808801955050505b50505092915050565b600060a082019050611aaf60008301886118df565b8181036020830152611ac18187611a16565b90508181036040830152611ad5818661148c565b90508181036060830152611ae981856118f9565b9050611af860808301846118df565b9695505050505050565b60006060820190508181036000830152611b1d8187896116a4565b90508181036020830152611b328185876116a4565b90508181036040830152611b4681846118f9565b90509695505050505050565b60006080820190508181036000830152611b6d81898b6116a4565b90508181036020830152611b828187896116a4565b90508181036040830152611b9781858761186e565b9050611ba66060830184611523565b98975050505050505050565b6000611bbd826111cf565b9150611bc8836111cf565b9250828201905080821115611be057611bdf61199e565b5b92915050565b60006060820190508181036000830152611c018187896116a4565b90508181036020830152611c168185876116a4565b9050611c256040830184611523565b9695505050505050565b7f4e487b7100000000000000000000000000000000000000000000000000000000600052603260045260246000fd5b600060ff82169050919050565b6000611c7682611c5e565b9150611c8183611c5e565b9250828203905060ff811115611c9a57611c9961199e565b5b92915050565b6000611cab826111cf565b91507fffffffffffffffffffffffffffffffffffffffffffffffffffffffffffffffff8203611cdd57611cdc61199e565b5b600182019050919050565b60008160601b9050919050565b6000611d0082611ce8565b9050919050565b6000611d1282611cf5565b9050919050565b611d2a611d25826118cd565b611d07565b82525050565b6000611d3c8284611d19565b60148201915081905092915050565b6000611d56826111cf565b9150611d61836111cf565b9250828202611d6f816111cf565b91508282048414831517611d8657611d8561199e565b5b5092915050565b7f4e487b7100000000000000000000000000000000000000000000000000000000600052604160045260246000fd5b60006040820190508181036000830152611dd6818561148c565b90508181036020830152611dea818461148c565b9050939250505056fea264697066735822122055fb3b1c9c387e42602509a0da6a5254e7fabeec08dd5e70d25992d21e1ef6bc64736f6c63430008110033",
  "linkReferences": {},
  "deployedLinkReferences": {}
}