{
  "_format": "hh-sol-artifact-1",
  "contractName": "Sender",
  "sourceName": "contracts/Sender.sol",
  "abi": [
    {
      "inputs": [
        {
          "internalType": "address",
          "name": "gateway_",
          "type": "address"
        },
        {
          "internalType": "address",
          "name": "gasReceiver_",
          "type": "address"
        },
        {
          "internalType": "string",
          "name": "thisChain_",
          "type": "string"
        }
      ],
      "stateMutability": "nonpayable",
      "type": "constructor"
    },
    {
      "inputs": [],
      "name": "InvalidAddress",
      "type": "error"
    },
    {
      "inputs": [],
      "name": "InvalidAddressString",
      "type": "error"
    },
    {
      "inputs": [],
      "name": "NotApprovedByGateway",
      "type": "error"
    },
    {
      "inputs": [],
      "name": "NotEnoughValueForGas",
      "type": "error"
    },
    {
      "anonymous": false,
      "inputs": [
        {
          "indexed": false,
          "internalType": "string",
          "name": "destinationChain",
          "type": "string"
        },
        {
          "indexed": false,
          "internalType": "string",
          "name": "contractAddress",
          "type": "string"
        },
        {
          "indexed": false,
          "internalType": "bytes",
          "name": "payload",
          "type": "bytes"
        },
        {
          "indexed": false,
          "internalType": "uint256",
          "name": "nonce",
          "type": "uint256"
        }
      ],
      "name": "ContractCallSent",
      "type": "event"
    },
    {
      "anonymous": false,
      "inputs": [
        {
          "indexed": false,
          "internalType": "string",
          "name": "destinationChain",
          "type": "string"
        },
        {
          "indexed": false,
          "internalType": "string",
          "name": "contractAddress",
          "type": "string"
        },
        {
          "indexed": false,
          "internalType": "uint256",
          "name": "nonce",
          "type": "uint256"
        }
      ],
      "name": "FalseAcknowledgment",
      "type": "event"
    },
    {
      "inputs": [
        {
          "internalType": "uint256",
          "name": "nonce_",
          "type": "uint256"
        }
      ],
      "name": "checkResponse",
      "outputs": [
        {
          "internalType": "bool",
          "name": "res",
          "type": "bool"
        }
      ],
      "stateMutability": "view",
      "type": "function"
    },
    {
      "inputs": [
        {
          "internalType": "uint256",
          "name": "",
          "type": "uint256"
        }
      ],
      "name": "destination",
      "outputs": [
        {
          "internalType": "bytes32",
          "name": "",
          "type": "bytes32"
        }
      ],
      "stateMutability": "view",
      "type": "function"
    },
    {
      "inputs": [
        {
          "internalType": "bytes32",
          "name": "commandId",
          "type": "bytes32"
        },
        {
          "internalType": "string",
          "name": "sourceChain",
          "type": "string"
        },
        {
          "internalType": "string",
          "name": "sourceAddress",
          "type": "string"
        },
        {
          "internalType": "bytes",
          "name": "payload",
          "type": "bytes"
        }
      ],
      "name": "execute",
      "outputs": [],
      "stateMutability": "nonpayable",
      "type": "function"
    },
    {
      "inputs": [
        {
          "internalType": "bytes32",
          "name": "commandId",
          "type": "bytes32"
        },
        {
          "internalType": "string",
          "name": "sourceChain",
          "type": "string"
        },
        {
          "internalType": "string",
          "name": "sourceAddress",
          "type": "string"
        },
        {
          "internalType": "bytes",
          "name": "payload",
          "type": "bytes"
        },
        {
          "internalType": "string",
          "name": "tokenSymbol",
          "type": "string"
        },
        {
          "internalType": "uint256",
          "name": "amount",
          "type": "uint256"
        }
      ],
      "name": "executeWithToken",
      "outputs": [],
      "stateMutability": "nonpayable",
      "type": "function"
    },
    {
      "inputs": [
        {
          "internalType": "uint256",
          "name": "",
          "type": "uint256"
        }
      ],
      "name": "executed",
      "outputs": [
        {
          "internalType": "bool",
          "name": "",
          "type": "bool"
        }
      ],
      "stateMutability": "view",
      "type": "function"
    },
    {
      "inputs": [],
      "name": "gasReceiver",
      "outputs": [
        {
          "internalType": "contract IAxelarGasService",
          "name": "",
          "type": "address"
        }
      ],
      "stateMutability": "view",
      "type": "function"
    },
    {
      "inputs": [],
      "name": "gateway",
      "outputs": [
        {
          "internalType": "contract IAxelarGateway",
          "name": "",
          "type": "address"
        }
      ],
      "stateMutability": "view",
      "type": "function"
    },
    {
      "inputs": [],
      "name": "nonce",
      "outputs": [
        {
          "internalType": "uint256",
          "name": "",
          "type": "uint256"
        }
      ],
      "stateMutability": "view",
      "type": "function"
    },
    {
      "inputs": [
        {
          "internalType": "string",
          "name": "destinationChain",
          "type": "string"
        },
        {
          "internalType": "string",
          "name": "contractAddress",
          "type": "string"
        },
        {
          "internalType": "address",
          "name": "nftAddr",
          "type": "address"
        },
        {
          "internalType": "uint256",
          "name": "tokenId",
          "type": "uint256"
        },
        {
          "internalType": "uint256",
          "name": "gasForRemote",
          "type": "uint256"
        }
      ],
      "name": "sendContractCall",
      "outputs": [],
      "stateMutability": "payable",
      "type": "function"
    },
    {
      "inputs": [],
      "name": "thisChain",
      "outputs": [
        {
          "internalType": "string",
          "name": "",
          "type": "string"
        }
      ],
      "stateMutability": "view",
      "type": "function"
    }
  ],
  "bytecode": "0x60c06040523480156200001157600080fd5b50604051620027533803806200275383398181016040528101906200003791906200031b565b82600073ffffffffffffffffffffffffffffffffffffffff168173ffffffffffffffffffffffffffffffffffffffff16036200009f576040517fe6c4247b00000000000000000000000000000000000000000000000000000000815260040160405180910390fd5b8073ffffffffffffffffffffffffffffffffffffffff1660808173ffffffffffffffffffffffffffffffffffffffff1681525050508173ffffffffffffffffffffffffffffffffffffffff1660a08173ffffffffffffffffffffffffffffffffffffffff16815250508060049081620001199190620005e1565b50505050620006c8565b6000604051905090565b600080fd5b600080fd5b600073ffffffffffffffffffffffffffffffffffffffff82169050919050565b6000620001648262000137565b9050919050565b620001768162000157565b81146200018257600080fd5b50565b60008151905062000196816200016b565b92915050565b600080fd5b600080fd5b6000601f19601f8301169050919050565b7f4e487b7100000000000000000000000000000000000000000000000000000000600052604160045260246000fd5b620001f182620001a6565b810181811067ffffffffffffffff82111715620002135762000212620001b7565b5b80604052505050565b60006200022862000123565b9050620002368282620001e6565b919050565b600067ffffffffffffffff821115620002595762000258620001b7565b5b6200026482620001a6565b9050602081019050919050565b60005b838110156200029157808201518184015260208101905062000274565b60008484015250505050565b6000620002b4620002ae846200023b565b6200021c565b905082815260208101848484011115620002d357620002d2620001a1565b5b620002e084828562000271565b509392505050565b600082601f8301126200030057620002ff6200019c565b5b8151620003128482602086016200029d565b91505092915050565b6000806000606084860312156200033757620003366200012d565b5b6000620003478682870162000185565b93505060206200035a8682870162000185565b925050604084015167ffffffffffffffff8111156200037e576200037d62000132565b5b6200038c86828701620002e8565b9150509250925092565b600081519050919050565b7f4e487b7100000000000000000000000000000000000000000000000000000000600052602260045260246000fd5b60006002820490506001821680620003e957607f821691505b602082108103620003ff57620003fe620003a1565b5b50919050565b60008190508160005260206000209050919050565b60006020601f8301049050919050565b600082821b905092915050565b600060088302620004697fffffffffffffffffffffffffffffffffffffffffffffffffffffffffffffffff826200042a565b6200047586836200042a565b95508019841693508086168417925050509392505050565b6000819050919050565b6000819050919050565b6000620004c2620004bc620004b6846200048d565b62000497565b6200048d565b9050919050565b6000819050919050565b620004de83620004a1565b620004f6620004ed82620004c9565b84845462000437565b825550505050565b600090565b6200050d620004fe565b6200051a818484620004d3565b505050565b5b8181101562000542576200053660008262000503565b60018101905062000520565b5050565b601f82111562000591576200055b8162000405565b62000566846200041a565b8101602085101562000576578190505b6200058e62000585856200041a565b8301826200051f565b50505b505050565b600082821c905092915050565b6000620005b66000198460080262000596565b1980831691505092915050565b6000620005d18383620005a3565b9150826002028217905092915050565b620005ec8262000396565b67ffffffffffffffff811115620006085762000607620001b7565b5b620006148254620003d0565b6200062182828562000546565b600060209050601f83116001811462000659576000841562000644578287015190505b620006508582620005c3565b865550620006c0565b601f198416620006698662000405565b60005b8281101562000693578489015182556001820191506020850194506020810190506200066c565b86831015620006b35784890151620006af601f891682620005a3565b8355505b6001600288020188555050505b505050505050565b60805160a051612042620007116000396000818161055f0152818161062001526106c0015260008181610269015281816102a9015281816103dd01526107eb01526120426000f3fe6080604052600436106100915760003560e01c806380d14b4a1161005957806380d14b4a1461017b578063affed0e0146101a6578063b20aa25b146101d1578063cc541a68146101ed578063d3ecebd71461022a57610091565b8063116191b6146100965780631a98b2e0146100c157806344f6891e146100ea57806349160658146101275780634d427cf914610150575b600080fd5b3480156100a257600080fd5b506100ab610267565b6040516100b891906111ec565b60405180910390f35b3480156100cd57600080fd5b506100e860048036038101906100e39190611338565b61028b565b005b3480156100f657600080fd5b50610111600480360381019061010c9190611448565b6103a7565b60405161011e9190611484565b60405180910390f35b34801561013357600080fd5b5061014e6004803603810190610149919061149f565b6103bf565b005b34801561015c57600080fd5b506101656104cf565b60405161017291906115f8565b60405180910390f35b34801561018757600080fd5b5061019061055d565b60405161019d919061163b565b60405180910390f35b3480156101b257600080fd5b506101bb610581565b6040516101c89190611665565b60405180910390f35b6101eb60048036038101906101e691906116be565b610587565b005b3480156101f957600080fd5b50610214600480360381019061020f9190611448565b610985565b6040516102219190611795565b60405180910390f35b34801561023657600080fd5b50610251600480360381019061024c9190611448565b610a1b565b60405161025e9190611795565b60405180910390f35b7f000000000000000000000000000000000000000000000000000000000000000081565b6000858560405161029d9291906117ef565b604051809103902090507f000000000000000000000000000000000000000000000000000000000000000073ffffffffffffffffffffffffffffffffffffffff16631876eed98c8c8c8c8c878b8b8b6040518a63ffffffff1660e01b815260040161031099989796959493929190611835565b6020604051808303816000875af115801561032f573d6000803e3d6000fd5b505050506040513d601f19601f8201168201806040525081019061035391906118dd565b610389576040517f500c44b400000000000000000000000000000000000000000000000000000000815260040160405180910390fd5b61039a8a8a8a8a8a8a8a8a8a610a3b565b5050505050505050505050565b60036020528060005260406000206000915090505481565b600082826040516103d19291906117ef565b604051809103902090507f000000000000000000000000000000000000000000000000000000000000000073ffffffffffffffffffffffffffffffffffffffff16635f6970c38989898989876040518763ffffffff1660e01b815260040161043e9695949392919061190a565b6020604051808303816000875af115801561045d573d6000803e3d6000fd5b505050506040513d601f19601f8201168201806040525081019061048191906118dd565b6104b7576040517f500c44b400000000000000000000000000000000000000000000000000000000815260040160405180910390fd5b6104c5878787878787610a46565b5050505050505050565b600480546104dc90611990565b80601f016020809104026020016040519081016040528092919081815260200182805461050890611990565b80156105555780601f1061052a57610100808354040283529160200191610555565b820191906000526020600020905b81548152906001019060200180831161053857829003601f168201915b505050505081565b7f000000000000000000000000000000000000000000000000000000000000000081565b60005481565b60008054905060003385856040516020016105a4939291906119d0565b6040516020818303038152906040529050600082826040516020016105ca929190611a5c565b604051602081830303815290604052905060008411156107e9573484111561061e576040517fe5f5a79900000000000000000000000000000000000000000000000000000000815260040160405180910390fd5b7f000000000000000000000000000000000000000000000000000000000000000073ffffffffffffffffffffffffffffffffffffffff16630c93e3bb85308d8d8d8d88336040518963ffffffff1660e01b81526004016106849796959493929190611a8c565b6000604051808303818588803b15801561069d57600080fd5b505af11580156106b1573d6000803e3d6000fd5b5050505050833411156107e8577f000000000000000000000000000000000000000000000000000000000000000073ffffffffffffffffffffffffffffffffffffffff16630c93e3bb85346107069190611b27565b6107538b8b8080601f016020809104026020016040519081016040528093929190818152602001838380828437600081840152601f19601f82011690508083019250505050505050610bc9565b60046107743073ffffffffffffffffffffffffffffffffffffffff16610e17565b886040516020016107859190611665565b604051602081830303815290604052336040518763ffffffff1660e01b81526004016107b5959493929190611bf4565b6000604051808303818588803b1580156107ce57600080fd5b505af11580156107e2573d6000803e3d6000fd5b50505050505b5b7f000000000000000000000000000000000000000000000000000000000000000073ffffffffffffffffffffffffffffffffffffffff16631c92115f8b8b8b8b866040518663ffffffff1660e01b815260040161084a959493929190611c5c565b600060405180830381600087803b15801561086457600080fd5b505af1158015610878573d6000803e3d6000fd5b505050507f6c52f5eda14b017bd6057579de78fe8354d9c133d8e7edec70920ef11b1089008a8a8a8a86886040516108b596959493929190611cac565b60405180910390a161094f8a8a8080601f016020809104026020016040519081016040528093929190818152602001838380828437600081840152601f19601f8201169050808301925050505050505089898080601f016020809104026020016040519081016040528093929190818152602001838380828437600081840152601f19601f8201169050808301925050505050505061113a565b60036000858152602001908152602001600020819055506001836109739190611d0a565b60008190555050505050505050505050565b6000600115156001600084815260200190815260200160002060009054906101000a900460ff161515036109db576002600083815260200190815260200160002060009054906101000a900460ff169050610a16565b6040517f08c379a0000000000000000000000000000000000000000000000000000000008152600401610a0d90611d8a565b60405180910390fd5b919050565b60016020528060005260406000206000915054906101000a900460ff1681565b505050505050505050565b6000808383810190610a589190611dbf565b91509150610aee88888080601f016020809104026020016040519081016040528093929190818152602001838380828437600081840152601f19601f8201169050808301925050505050505087878080601f016020809104026020016040519081016040528093929190818152602001838380828437600081840152601f19601f8201169050808301925050505050505061113a565b600360008481526020019081526020016000205414610b4d577f036f215e0dffdb0755f8b502613d33e916e9f35487ca9b8e9be104a1cd9caa128888888886604051610b3e959493929190611dff565b60405180910390a15050610bc1565b600180600084815260200190815260200160002060006101000a81548160ff0219169083151502179055506000801b6003600084815260200190815260200160002081905550806002600084815260200190815260200160002060006101000a81548160ff02191690831515021790555050505b505050505050565b600080829050600080602a8351141580610c4357507f300000000000000000000000000000000000000000000000000000000000000083600081518110610c1357610c12611e48565b5b602001015160f81c60f81b7effffffffffffffffffffffffffffffffffffffffffffffffffffffffffffff191614155b80610cae57507f780000000000000000000000000000000000000000000000000000000000000083600181518110610c7e57610c7d611e48565b5b602001015160f81c60f81b7effffffffffffffffffffffffffffffffffffffffffffffffffffffffffffff191614155b15610ce5576040517fdf48f19e00000000000000000000000000000000000000000000000000000000815260040160405180910390fd5b6000600290505b602a811015610e0b57838181518110610d0857610d07611e48565b5b602001015160f81c60f81b60f81c915060618260ff1610158015610d30575060668260ff1611155b15610d4957605782610d429190611e84565b9150610ddf565b60418260ff1610158015610d61575060468260ff1611155b15610d7a57603782610d739190611e84565b9150610dde565b60308260ff1610158015610d92575060398260ff1611155b15610dab57603082610da49190611e84565b9150610ddd565b6040517fdf48f19e00000000000000000000000000000000000000000000000000000000815260040160405180910390fd5b5b5b6002816029610dee9190611b27565b901b8260ff16901b8317925080610e0490611eb9565b9050610cec565b50819350505050919050565b6060600082604051602001610e2c9190611f49565b604051602081830303815290604052905060008151905060006040518060400160405280601081526020017f30313233343536373839616263646566000000000000000000000000000000008152509050600060028451610e8d9190611f64565b6002610e999190611d0a565b67ffffffffffffffff811115610eb257610eb1611fa6565b5b6040519080825280601f01601f191660200182016040528015610ee45781602001600182028036833780820191505090505b5090507f300000000000000000000000000000000000000000000000000000000000000081600081518110610f1c57610f1b611e48565b5b60200101907effffffffffffffffffffffffffffffffffffffffffffffffffffffffffffff1916908160001a9053507f780000000000000000000000000000000000000000000000000000000000000081600181518110610f8057610f7f611e48565b5b60200101907effffffffffffffffffffffffffffffffffffffffffffffffffffffffffffff1916908160001a90535060005b8381101561112d57826004868381518110610fd057610fcf611e48565b5b602001015160f81c60f81b7effffffffffffffffffffffffffffffffffffffffffffffffffffffffffffff1916901c60f81c60ff168151811061101657611015611e48565b5b602001015160f81c60f81b8260028361102f9190611f64565b600261103b9190611d0a565b8151811061104c5761104b611e48565b5b60200101907effffffffffffffffffffffffffffffffffffffffffffffffffffffffffffff1916908160001a90535082600f60f81b86838151811061109457611093611e48565b5b602001015160f81c60f81b1660f81c60ff16815181106110b7576110b6611e48565b5b602001015160f81c60f81b826002836110d09190611f64565b60036110dc9190611d0a565b815181106110ed576110ec611e48565b5b60200101907effffffffffffffffffffffffffffffffffffffffffffffffffffffffffffff1916908160001a9053508061112690611eb9565b9050610fb2565b5080945050505050919050565b6000828260405160200161114f929190611fd5565b60405160208183030381529060405280519060200120905092915050565b600073ffffffffffffffffffffffffffffffffffffffff82169050919050565b6000819050919050565b60006111b26111ad6111a88461116d565b61118d565b61116d565b9050919050565b60006111c482611197565b9050919050565b60006111d6826111b9565b9050919050565b6111e6816111cb565b82525050565b600060208201905061120160008301846111dd565b92915050565b600080fd5b600080fd5b6000819050919050565b61122481611211565b811461122f57600080fd5b50565b6000813590506112418161121b565b92915050565b600080fd5b600080fd5b600080fd5b60008083601f84011261126c5761126b611247565b5b8235905067ffffffffffffffff8111156112895761128861124c565b5b6020830191508360018202830111156112a5576112a4611251565b5b9250929050565b60008083601f8401126112c2576112c1611247565b5b8235905067ffffffffffffffff8111156112df576112de61124c565b5b6020830191508360018202830111156112fb576112fa611251565b5b9250929050565b6000819050919050565b61131581611302565b811461132057600080fd5b50565b6000813590506113328161130c565b92915050565b60008060008060008060008060008060c08b8d03121561135b5761135a611207565b5b60006113698d828e01611232565b9a505060208b013567ffffffffffffffff81111561138a5761138961120c565b5b6113968d828e01611256565b995099505060408b013567ffffffffffffffff8111156113b9576113b861120c565b5b6113c58d828e01611256565b975097505060608b013567ffffffffffffffff8111156113e8576113e761120c565b5b6113f48d828e016112ac565b955095505060808b013567ffffffffffffffff8111156114175761141661120c565b5b6114238d828e01611256565b935093505060a06114368d828e01611323565b9150509295989b9194979a5092959850565b60006020828403121561145e5761145d611207565b5b600061146c84828501611323565b91505092915050565b61147e81611211565b82525050565b60006020820190506114996000830184611475565b92915050565b60008060008060008060006080888a0312156114be576114bd611207565b5b60006114cc8a828b01611232565b975050602088013567ffffffffffffffff8111156114ed576114ec61120c565b5b6114f98a828b01611256565b9650965050604088013567ffffffffffffffff81111561151c5761151b61120c565b5b6115288a828b01611256565b9450945050606088013567ffffffffffffffff81111561154b5761154a61120c565b5b6115578a828b016112ac565b925092505092959891949750929550565b600081519050919050565b600082825260208201905092915050565b60005b838110156115a2578082015181840152602081019050611587565b60008484015250505050565b6000601f19601f8301169050919050565b60006115ca82611568565b6115d48185611573565b93506115e4818560208601611584565b6115ed816115ae565b840191505092915050565b6000602082019050818103600083015261161281846115bf565b905092915050565b6000611625826111b9565b9050919050565b6116358161161a565b82525050565b6000602082019050611650600083018461162c565b92915050565b61165f81611302565b82525050565b600060208201905061167a6000830184611656565b92915050565b600061168b8261116d565b9050919050565b61169b81611680565b81146116a657600080fd5b50565b6000813590506116b881611692565b92915050565b600080600080600080600060a0888a0312156116dd576116dc611207565b5b600088013567ffffffffffffffff8111156116fb576116fa61120c565b5b6117078a828b01611256565b9750975050602088013567ffffffffffffffff81111561172a5761172961120c565b5b6117368a828b01611256565b955095505060406117498a828b016116a9565b935050606061175a8a828b01611323565b925050608061176b8a828b01611323565b91505092959891949750929550565b60008115159050919050565b61178f8161177a565b82525050565b60006020820190506117aa6000830184611786565b92915050565b600081905092915050565b82818337600083830152505050565b60006117d683856117b0565b93506117e38385846117bb565b82840190509392505050565b60006117fc8284866117ca565b91508190509392505050565b60006118148385611573565b93506118218385846117bb565b61182a836115ae565b840190509392505050565b600060c08201905061184a600083018c611475565b818103602083015261185d818a8c611808565b9050818103604083015261187281888a611808565b90506118816060830187611475565b8181036080830152611894818587611808565b90506118a360a0830184611656565b9a9950505050505050505050565b6118ba8161177a565b81146118c557600080fd5b50565b6000815190506118d7816118b1565b92915050565b6000602082840312156118f3576118f2611207565b5b6000611901848285016118c8565b91505092915050565b600060808201905061191f6000830189611475565b8181036020830152611932818789611808565b90508181036040830152611947818587611808565b90506119566060830184611475565b979650505050505050565b7f4e487b7100000000000000000000000000000000000000000000000000000000600052602260045260246000fd5b600060028204905060018216806119a857607f821691505b6020821081036119bb576119ba611961565b5b50919050565b6119ca81611680565b82525050565b60006060820190506119e560008301866119c1565b6119f260208301856119c1565b6119ff6040830184611656565b949350505050565b600081519050919050565b600082825260208201905092915050565b6000611a2e82611a07565b611a388185611a12565b9350611a48818560208601611584565b611a51816115ae565b840191505092915050565b6000604082019050611a716000830185611656565b8181036020830152611a838184611a23565b90509392505050565b600060a082019050611aa1600083018a6119c1565b8181036020830152611ab481888a611808565b90508181036040830152611ac9818688611808565b90508181036060830152611add8185611a23565b9050611aec60808301846119c1565b98975050505050505050565b7f4e487b7100000000000000000000000000000000000000000000000000000000600052601160045260246000fd5b6000611b3282611302565b9150611b3d83611302565b9250828203905081811115611b5557611b54611af8565b5b92915050565b60008190508160005260206000209050919050565b60008154611b7d81611990565b611b878186611573565b94506001821660008114611ba25760018114611bb857611beb565b60ff198316865281151560200286019350611beb565b611bc185611b5b565b60005b83811015611be357815481890152600182019150602081019050611bc4565b808801955050505b50505092915050565b600060a082019050611c0960008301886119c1565b8181036020830152611c1b8187611b70565b90508181036040830152611c2f81866115bf565b90508181036060830152611c438185611a23565b9050611c5260808301846119c1565b9695505050505050565b60006060820190508181036000830152611c77818789611808565b90508181036020830152611c8c818587611808565b90508181036040830152611ca08184611a23565b90509695505050505050565b60006080820190508181036000830152611cc781888a611808565b90508181036020830152611cdc818688611808565b90508181036040830152611cf08185611a23565b9050611cff6060830184611656565b979650505050505050565b6000611d1582611302565b9150611d2083611302565b9250828201905080821115611d3857611d37611af8565b5b92915050565b7f4e6f20726573706f6e7365207965742121210000000000000000000000000000600082015250565b6000611d74601283611573565b9150611d7f82611d3e565b602082019050919050565b60006020820190508181036000830152611da381611d67565b9050919050565b600081359050611db9816118b1565b92915050565b60008060408385031215611dd657611dd5611207565b5b6000611de485828601611323565b9250506020611df585828601611daa565b9150509250929050565b60006060820190508181036000830152611e1a818789611808565b90508181036020830152611e2f818587611808565b9050611e3e6040830184611656565b9695505050505050565b7f4e487b7100000000000000000000000000000000000000000000000000000000600052603260045260246000fd5b600060ff82169050919050565b6000611e8f82611e77565b9150611e9a83611e77565b9250828203905060ff811115611eb357611eb2611af8565b5b92915050565b6000611ec482611302565b91507fffffffffffffffffffffffffffffffffffffffffffffffffffffffffffffffff8203611ef657611ef5611af8565b5b600182019050919050565b60008160601b9050919050565b6000611f1982611f01565b9050919050565b6000611f2b82611f0e565b9050919050565b611f43611f3e82611680565b611f20565b82525050565b6000611f558284611f32565b60148201915081905092915050565b6000611f6f82611302565b9150611f7a83611302565b9250828202611f8881611302565b91508282048414831517611f9f57611f9e611af8565b5b5092915050565b7f4e487b7100000000000000000000000000000000000000000000000000000000600052604160045260246000fd5b60006040820190508181036000830152611fef81856115bf565b9050818103602083015261200381846115bf565b9050939250505056fea2646970667358221220b2efa9240c8a7450f6eeca03f0a2dcbbea4df563daa82362190793f20aa4523a64736f6c63430008110033",
  "linkReferences": {},
  "deployedLinkReferences": {}
}